{
  "_format": "hh-sol-artifact-1",
  "contractName": "WavePortal",
  "sourceName": "contracts/WavePortal.sol",
  "abi": [
    {
      "inputs": [],
      "stateMutability": "nonpayable",
      "type": "constructor"
    },
    {
      "anonymous": false,
      "inputs": [
        {
          "indexed": true,
          "internalType": "address",
          "name": "from",
          "type": "address"
        },
        {
          "indexed": false,
          "internalType": "uint256",
          "name": "timestamp",
          "type": "uint256"
        },
        {
          "indexed": false,
          "internalType": "string",
          "name": "message",
          "type": "string"
        }
      ],
      "name": "NewWave",
      "type": "event"
    },
    {
      "inputs": [],
      "name": "getAllWaves",
      "outputs": [
        {
          "components": [
            {
              "internalType": "address",
              "name": "waver",
              "type": "address"
            },
            {
              "internalType": "string",
              "name": "message",
              "type": "string"
            },
            {
              "internalType": "uint256",
              "name": "timestamp",
              "type": "uint256"
            }
          ],
          "internalType": "struct WavePortal.Wave[]",
          "name": "",
          "type": "tuple[]"
        }
      ],
      "stateMutability": "view",
      "type": "function"
    },
    {
      "inputs": [],
      "name": "getTotalWaves",
      "outputs": [
        {
          "internalType": "uint256",
          "name": "",
          "type": "uint256"
        }
      ],
      "stateMutability": "view",
      "type": "function"
    },
    {
      "inputs": [
        {
          "internalType": "address",
          "name": "_address",
          "type": "address"
        }
      ],
      "name": "getUserWaves",
      "outputs": [
        {
          "internalType": "uint256",
          "name": "userWaves",
          "type": "uint256"
        }
      ],
      "stateMutability": "view",
      "type": "function"
    },
    {
      "inputs": [
        {
          "internalType": "address",
          "name": "",
          "type": "address"
        }
      ],
      "name": "lastWavedAt",
      "outputs": [
        {
          "internalType": "uint256",
          "name": "",
          "type": "uint256"
        }
      ],
      "stateMutability": "view",
      "type": "function"
    },
    {
      "inputs": [
        {
          "internalType": "address",
          "name": "",
          "type": "address"
        }
      ],
      "name": "userWaveCount",
      "outputs": [
        {
          "internalType": "uint256",
          "name": "",
          "type": "uint256"
        }
      ],
      "stateMutability": "view",
      "type": "function"
    },
    {
      "inputs": [
        {
          "internalType": "string",
          "name": "_message",
          "type": "string"
        }
      ],
      "name": "wave",
      "outputs": [],
      "stateMutability": "nonpayable",
      "type": "function"
    }
  ],
  "bytecode": "0x60806040523480156200001157600080fd5b506200005d6040518060400160405280601881526020017f4d7920746869726420736d61727420636f6e74726163742100000000000000008152506200006360201b620006891760201c565b620001f7565b62000103816040516024016200007a919062000170565b6040516020818303038152906040527f41304fac000000000000000000000000000000000000000000000000000000007bffffffffffffffffffffffffffffffffffffffffffffffffffffffff19166020820180517bffffffffffffffffffffffffffffffffffffffffffffffffffffffff83818316178352505050506200010660201b60201c565b50565b60008151905060006a636f6e736f6c652e6c6f679050602083016000808483855afa5050505050565b60006200013c8262000194565b6200014881856200019f565b93506200015a818560208601620001b0565b6200016581620001e6565b840191505092915050565b600060208201905081810360008301526200018c81846200012f565b905092915050565b600081519050919050565b600082825260208201905092915050565b60005b83811015620001d0578082015181840152602081019050620001b3565b83811115620001e0576000848401525b50505050565b6000601f19601f8301169050919050565b610ffd80620002076000396000f3fe608060405234801561001057600080fd5b50600436106100625760003560e01c8063449d46c0146100675780636cdca0ea14610083578063812e8016146100b35780639a2cdc08146100e3578063a42a466314610101578063bd43a90814610131575b600080fd5b610081600480360381019061007c9190610a4d565b61014f565b005b61009d60048036038101906100989190610a24565b610434565b6040516100aa9190610d88565b60405180910390f35b6100cd60048036038101906100c89190610a24565b6104bd565b6040516100da9190610d88565b60405180910390f35b6100eb6104d5565b6040516100f89190610d88565b60405180910390f35b61011b60048036038101906101169190610a24565b610520565b6040516101289190610d88565b60405180910390f35b610139610538565b6040516101469190610c86565b60405180910390f35b42603c600260003373ffffffffffffffffffffffffffffffffffffffff1673ffffffffffffffffffffffffffffffffffffffff1681526020019081526020016000205461019c9190610e3b565b106101dc576040517f08c379a00000000000000000000000000000000000000000000000000000000081526004016101d390610d68565b60405180910390fd5b42600260003373ffffffffffffffffffffffffffffffffffffffff1673ffffffffffffffffffffffffffffffffffffffff1681526020019081526020016000208190555060016000808282546102329190610e3b565b9250508190555060018060003373ffffffffffffffffffffffffffffffffffffffff1673ffffffffffffffffffffffffffffffffffffffff16815260200190815260200160002060008282546102889190610e3b565b925050819055506102ce6040518060400160405280600c81526020017f257320686173207761766564000000000000000000000000000000000000000081525033610722565b600360405180606001604052803373ffffffffffffffffffffffffffffffffffffffff16815260200184848080601f016020809104026020016040519081016040528093929190818152602001838380828437600081840152601f19601f82011690508083019250505050505050815260200142815250908060018154018082558091505060019003906000526020600020906003020160009091909190915060008201518160000160006101000a81548173ffffffffffffffffffffffffffffffffffffffff021916908373ffffffffffffffffffffffffffffffffffffffff16021790555060208201518160010190805190602001906103d1929190610922565b506040820151816002015550503373ffffffffffffffffffffffffffffffffffffffff167f5f7e16dc676677766a70e9c5628aa6c54ddb8b6e5188e2ae1e1f17f1ffbea71642848460405161042893929190610da3565b60405180910390a25050565b6000600160008373ffffffffffffffffffffffffffffffffffffffff1673ffffffffffffffffffffffffffffffffffffffff1681526020019081526020016000205490506104b86040518060400160405280601681526020017f25732068617320256420746f74616c207761766573210000000000000000000081525083836107be565b919050565b60016020528060005260406000206000915090505481565b60006105186040518060400160405280601781526020017f5765206861766520256420746f74616c2077617665732100000000000000000081525060005461085d565b600054905090565b60026020528060005260406000206000915090505481565b60606003805480602002602001604051908101604052809291908181526020016000905b8282101561068057838290600052602060002090600302016040518060600160405290816000820160009054906101000a900473ffffffffffffffffffffffffffffffffffffffff1673ffffffffffffffffffffffffffffffffffffffff1673ffffffffffffffffffffffffffffffffffffffff1681526020016001820180546105e590610f0f565b80601f016020809104026020016040519081016040528092919081815260200182805461061190610f0f565b801561065e5780601f106106335761010080835404028352916020019161065e565b820191906000526020600020905b81548152906001019060200180831161064157829003601f168201915b505050505081526020016002820154815250508152602001906001019061055c565b50505050905090565b61071f8160405160240161069d9190610ca8565b6040516020818303038152906040527f41304fac000000000000000000000000000000000000000000000000000000007bffffffffffffffffffffffffffffffffffffffffffffffffffffffff19166020820180517bffffffffffffffffffffffffffffffffffffffffffffffffffffffff83818316178352505050506108f9565b50565b6107ba8282604051602401610738929190610cca565b6040516020818303038152906040527f319af333000000000000000000000000000000000000000000000000000000007bffffffffffffffffffffffffffffffffffffffffffffffffffffffff19166020820180517bffffffffffffffffffffffffffffffffffffffffffffffffffffffff83818316178352505050506108f9565b5050565b6108588383836040516024016107d693929190610cfa565b6040516020818303038152906040527f07c81217000000000000000000000000000000000000000000000000000000007bffffffffffffffffffffffffffffffffffffffffffffffffffffffff19166020820180517bffffffffffffffffffffffffffffffffffffffffffffffffffffffff83818316178352505050506108f9565b505050565b6108f58282604051602401610873929190610d38565b6040516020818303038152906040527f9710a9d0000000000000000000000000000000000000000000000000000000007bffffffffffffffffffffffffffffffffffffffffffffffffffffffff19166020820180517bffffffffffffffffffffffffffffffffffffffffffffffffffffffff83818316178352505050506108f9565b5050565b60008151905060006a636f6e736f6c652e6c6f679050602083016000808483855afa5050505050565b82805461092e90610f0f565b90600052602060002090601f0160209004810192826109505760008555610997565b82601f1061096957805160ff1916838001178555610997565b82800160010185558215610997579182015b8281111561099657825182559160200191906001019061097b565b5b5090506109a491906109a8565b5090565b5b808211156109c15760008160009055506001016109a9565b5090565b6000813590506109d481610fb0565b92915050565b60008083601f8401126109ec57600080fd5b8235905067ffffffffffffffff811115610a0557600080fd5b602083019150836001820283011115610a1d57600080fd5b9250929050565b600060208284031215610a3657600080fd5b6000610a44848285016109c5565b91505092915050565b60008060208385031215610a6057600080fd5b600083013567ffffffffffffffff811115610a7a57600080fd5b610a86858286016109da565b92509250509250929050565b6000610a9e8383610c18565b905092915050565b610aaf81610e91565b82525050565b610abe81610e91565b82525050565b6000610acf82610de5565b610ad98185610e08565b935083602082028501610aeb85610dd5565b8060005b85811015610b275784840389528151610b088582610a92565b9450610b1383610dfb565b925060208a01995050600181019050610aef565b50829750879550505050505092915050565b6000610b458385610e2a565b9350610b52838584610ecd565b610b5b83610f9f565b840190509392505050565b6000610b7182610df0565b610b7b8185610e19565b9350610b8b818560208601610edc565b610b9481610f9f565b840191505092915050565b6000610baa82610df0565b610bb48185610e2a565b9350610bc4818560208601610edc565b610bcd81610f9f565b840191505092915050565b6000610be5600d83610e2a565b91507f776169742031206d696e757465000000000000000000000000000000000000006000830152602082019050919050565b6000606083016000830151610c306000860182610aa6565b5060208301518482036020860152610c488282610b66565b9150506040830151610c5d6040860182610c68565b508091505092915050565b610c7181610ec3565b82525050565b610c8081610ec3565b82525050565b60006020820190508181036000830152610ca08184610ac4565b905092915050565b60006020820190508181036000830152610cc28184610b9f565b905092915050565b60006040820190508181036000830152610ce48185610b9f565b9050610cf36020830184610ab5565b9392505050565b60006060820190508181036000830152610d148186610b9f565b9050610d236020830185610ab5565b610d306040830184610c77565b949350505050565b60006040820190508181036000830152610d528185610b9f565b9050610d616020830184610c77565b9392505050565b60006020820190508181036000830152610d8181610bd8565b9050919050565b6000602082019050610d9d6000830184610c77565b92915050565b6000604082019050610db86000830186610c77565b8181036020830152610dcb818486610b39565b9050949350505050565b6000819050602082019050919050565b600081519050919050565b600081519050919050565b6000602082019050919050565b600082825260208201905092915050565b600082825260208201905092915050565b600082825260208201905092915050565b6000610e4682610ec3565b9150610e5183610ec3565b9250827fffffffffffffffffffffffffffffffffffffffffffffffffffffffffffffffff03821115610e8657610e85610f41565b5b828201905092915050565b6000610e9c82610ea3565b9050919050565b600073ffffffffffffffffffffffffffffffffffffffff82169050919050565b6000819050919050565b82818337600083830152505050565b60005b83811015610efa578082015181840152602081019050610edf565b83811115610f09576000848401525b50505050565b60006002820490506001821680610f2757607f821691505b60208210811415610f3b57610f3a610f70565b5b50919050565b7f4e487b7100000000000000000000000000000000000000000000000000000000600052601160045260246000fd5b7f4e487b7100000000000000000000000000000000000000000000000000000000600052602260045260246000fd5b6000601f19601f8301169050919050565b610fb981610e91565b8114610fc457600080fd5b5056fea264697066735822122090570dbad728a8ea3af9e2311c6c6daa4a430e130cd3ab9deda3b39ff824190c64736f6c63430008000033",
  "linkReferences": {},
  "deployedLinkReferences": {}
}